:100000000C9444000C946C000C946C000C946C00E8
:100010000C946C000C946C000C946C000C946C00B0
:100020000C946C000C946C000C946C000C946C00A0
:100030000C946C000C946C000C946C000C946C0090
:100040000C9419040C946C000C9489040C946304B3
:100050000C946C000C946C000C946C000C946C0070
:100060000C946C000C946C005A068806BA06E806DC
:10007000160744077207D707320866089A08D0089F
:1000800005093A09CB04BB0411241FBECFEFD8E009
:10009000DEBFCDBF22E0A8EDB1E001C01D92A93BBB
:1000A000B207E1F711E0A0E0B1E0E4E7F8E102C057
:1000B00005900D92A83DB107D9F710E0C3E4D0E058
:1000C00004C02197FE010E94110AC234D107C9F76A
:1000D0000E940F050C942D0C0C9400003FB7F8946F
:1000E0008091F0019091F101A091F201B091F301A2
:1000F00026B5A89B05C02F3F19F00196A11DB11D83
:100100003FBFBA2FA92F982F8827820F911DA11DBD
:10011000B11DBC01CD0142E0660F771F881F991FFA
:100120004A95D1F708950895CF92DF92EF92FF920A
:100130000F931F93CF93DF936C017A018B01C0E083
:10014000D0E0CE15DF0581F0D8016D918D01D6018B
:10015000ED91FC910190F081E02DC6010995892B6C
:1001600011F02196EECF7E01C701DF91CF911F9153
:100170000F91FF90EF90DF90CF90089580E090E096
:100180000895FC01538D448D252F30E0842F90E09D
:10019000821B930B541710F0CF9608950197089582
:1001A000FC01918D828D981761F0828DDF01A80F7F
:1001B000B11D5D968C91928D9F5F9F73928F90E0A1
:1001C00008958FEF9FEF08952FB7F8948091F40171
:1001D0009091F501A091F601B091F7012FBF8093A6
:1001E000000290930102A0930202B093030288EFF1
:1001F00091E00E94D00097FF26C02FB7F89480911D
:10020000F4019091F501A091F601B091F7012FBF93
:10021000409100025091010260910202709103022C
:10022000841B950BA60BB70B4091FC015091FD016F
:100230006091FE017091FF0184179507A607B7072B
:10024000B0F28FEF9FEF0895FC01918D828D98178A
:1002500031F0828DE80FF11D858D90E008958FEFCC
:100260009FEF0895FC01918D228D892F90E0805C95
:100270009F4F821B91098F739927089588EF91E012
:100280000E94320121E0892B09F420E0822F089599
:10029000FC01848DDF01A80FB11DA35ABF4F2C9123
:1002A000848D90E001968F739927848FA689B789F2
:1002B0002C93A089B1898C91837080648C93938DE9
:1002C000848D981306C00288F389E02D80818F7D8C
:1002D00080830895EF92FF920F931F93CF93DF9344
:1002E000EC0181E0888F9B8D8C8D981305C0E88987
:1002F000F989808185FD26C0F62E0B8D10E00F5FF9
:100300001F4F0F731127E02E8C8DE8120CC00FB613
:1003100007FCFACFE889F989808185FFF5CFCE0106
:100320000E944801F1CF8B8DFE01E80FF11DE35AC9
:10033000FF4FF0829FB7F8940B8FEA89FB89808189
:1003400080620AC09FB7F894EE89FF896083E889CC
:10035000F98980818370806480839FBF81E090E011
:10036000DF91CF911F910F91FF90EF900895CF9360
:10037000DF93EC01888D8823C9F0EA89FB898081AD
:1003800085FD05C0A889B9898C9186FD0FC00FB67F
:1003900007FCF5CF808185FFF2CFA889B9898C91C0
:1003A00085FFEDCFCE010E944801E7CFDF91CF91CD
:1003B000089580E090E0892B29F00E943E01811190
:1003C0000C9400000895009769F0FC010190002052
:1003D000E9F73197AF01481B590BBC0188EF91E059
:1003E0000C94940080E090E008958F929F92AF92D9
:1003F000BF920F931F93CF93DF93CDB7DEB7A19733
:100400000FB6F894DEBF0FBECDBF19A2423008F47C
:100410004AE08E010F5D1F4F842E912CA12CB12C30
:10042000A50194010E94EF09E62FB901CA0101500C
:100430001109EA3014F4E05D01C0E95CD801EC93E5
:10044000232B242B252B61F7C8010E94E301A196E1
:100450000FB6F894DEBF0FBECDBFDF91CF911F91D5
:100460000F91BF90AF909F908F900895CF93DF939F
:100470000E94E301EC0188E191E00E94E3018C0F0E
:100480009D1FDF91CF910895CF93DF93FC014481AD
:1004900055816081718188EF91E00E949400EC01A8
:1004A00088E191E00E94E3018C0F9D1FDF91CF91C5
:1004B0000895CF92DF92EF92FF92CF93DF936C017A
:1004C000990FEE08FF08F7FE13C06DE288EF91E088
:1004D0000E946A01EC0166277727CB016C197D0920
:1004E0008E099F094AE00E94F501C80FD91F06C076
:1004F0004AE0C701B6010E94F501EC0188E191E0F4
:100500000E94E3018C0F9D1FDF91CF91FF90EF9030
:10051000DF90CF900895CF93DF932091B302309175
:10052000B402232B79F0FC01C091AF02D091B0024C
:1005300060817181CE010E94130C009719F08C1B11
:100540009D0B02C08FEF9FEFDF91CF9108950E9426
:10055000FE0BFC0180819181009711F00C947C09C5
:1005600060E070E0CB0108950F931F93CF93DF936A
:100570008C01EB01FC0180819181009739F0688149
:10058000798161157105A1F40E94AF0A8881998172
:10059000F801918380838A819B81938382838C81FC
:1005A0009D8195838483198218821B821A820FC0D1
:1005B000F801428153812C813D814217530720F37A
:1005C0000E940C0C8C819D81F801958384831D828F
:1005D0001C82DF91CF911F910F910895FC018081C2
:1005E00091810C94AF0A0F931F93CF93DF93EC018B
:1005F00088819981009729F02A813B812617370746
:1006000088F48B016F5F7F4F0E94380B009761F079
:10061000998388831B830A832C813D81232B11F4CA
:10062000FC01108281E001C080E0DF91CF911F9139
:100630000F910895EF92FF920F931F93CF93DF9343
:10064000EC017B018A01BA010E94F3022881398101
:1006500081110DC02115310519F0C9010E94AF0AA1
:10066000198218821D821C821B821A8206C01D8379
:100670000C83B701C9010E940C0CCE01DF91CF9110
:100680001F910F91FF90EF900895CF93DF93EC01AE
:100690006115710559F0FB0101900020E9F73197D0
:1006A000AF01461B570B0E941A030CC08881998129
:1006B000009711F00E94AF0A198218821D821C82D5
:1006C0001B821A82CE01DF91CF910895FC01118225
:1006D000108213821282158214826115710551F005
:1006E000FB0101900020E9F73197AF01461B570B42
:1006F0000C941A030895CF92DF92EF92FF920F931A
:100700001F93CF93DF936C018B017A014617570734
:1007100020F4812F8A01E62EF82E6AE171E0C601ED
:100720000E946603C091B302D091B4020C171D075A
:10073000E0F4EC16FD0608F4E701E091AF02F09159
:10074000B002EC0FFD1FF08010826091AF0270913B
:10075000B002600F711FC6010E9445038091AF0275
:100760009091B002C80FD91FF882C601DF91CF91D6
:100770001F910F91FF90EF90DF90CF900895CF924F
:10078000DF92EF92FF920F931F93CF93DF93EC01D1
:10079000FB01DB01AA0FBB1FA152BE4F6D917C91E3
:1007A000A4E6B0E06D01C61AD70A4FEDE42E41E091
:1007B000F42E20E030E000E010E080E090E0273010
:1007C000310599F0D7014D915D917D016417750751
:1007D0004CF4461B570B4C155D0514F4C9016A0116
:1007E00001E010E02F5F3F4FEACF3093D901209313
:1007F000D8013197329748F06E5F7F4F012B29F473
:100800004091DA015091DB0107C0880F991FFC016C
:10081000E152FE4F40815181CE010E947B03CE0107
:10082000DF91CF911F910F91FF90EF90DF90CF90CC
:1008300008951F920F920FB60F9211242F933F939A
:100840008F939F93AF93BF938091F4019091F501A3
:10085000A091F601B091F7013091EF0123E0230F51
:100860002D3720F40196A11DB11D05C026E8230FE8
:100870000296A11DB11D2093EF018093F401909386
:10088000F501A093F601B093F7018091F0019091EA
:10089000F101A091F201B091F3010196A11DB11DEA
:1008A0008093F0019093F101A093F201B093F301D2
:1008B000BF91AF919F918F913F912F910F900FBE5C
:1008C0000F901F9018951F920F920FB60F92112440
:1008D0002F933F934F935F936F937F938F939F9348
:1008E000AF93BF93EF93FF9388EF91E00E9448018D
:1008F000FF91EF91BF91AF919F918F917F916F91F8
:100900005F914F913F912F910F900FBE0F901F90CD
:1009100018951F920F920FB60F9211242F938F9359
:100920009F93EF93FF93E0910802F0910902808179
:10093000E0910E02F0910F0282FD12C09081809131
:1009400011028F5F8F7320911202821751F0E09194
:100950001102F0E0E850FE4F958F8093110201C024
:100960008081FF91EF919F918F912F910F900FBEFA
:100970000F901F90189589EA92E00E94EE0283EA98
:1009800092E00E94EE028DE992E00E94EE028FEA70
:1009900092E00C94EE02E8EFF1E01382128288EE0E
:1009A00093E0A0E0B0E084839583A683B7838AE0D8
:1009B00091E09183808385EC90E09587848784EC37
:1009C00090E09787868780EC90E0918B808B81EC1C
:1009D00090E0938B828B82EC90E0958B848B86ECFD
:1009E00090E0978B868B118E128E138E148E65E29B
:1009F00071E08FEA92E00E9466036AE171E08DE99E
:100A000092E00E9466036AE171E083EA92E00E944C
:100A100066036AE171E089EA92E00C946603CF9381
:100A2000DF93CDB7DEB728970FB6F894DEBF0FBEC1
:100A3000CDBF789484B5826084BD84B5816084BD67
:100A400085B5826085BD85B5816085BD80916E006C
:100A5000816080936E00109281008091810082609D
:100A600080938100809181008160809381008091DA
:100A700080008160809380008091B10084608093C9
:100A8000B1008091B00081608093B00080917A00C5
:100A9000846080937A0080917A00826080937A00EB
:100AA00080917A00816080937A0080917A008068DA
:100AB00080937A001092C100E0910802F09109023F
:100AC00082E08083E0910402F09105021082E091BF
:100AD0000602F09107028FEC808310921002E091E1
:100AE0000C02F0910D0286E08083E0910A02F09101
:100AF0000B02808180618083E0910A02F0910B02F9
:100B0000808188608083E0910A02F0910B028081ED
:100B100080688083E0910A02F0910B0280818F7DD2
:100B200080830FEF1FEF67E0262E312C76E0E72E53
:100B3000F12CE5E0CE2ED12C88EF91E00E9432011D
:100B400018161906D4F58091DE01811136C0CDC387
:100B50008F831886AD80BE802FEFA21AB20AB5012E
:100B6000CE0101960E94F302882369F029813A811F
:100B70008D819E81BE01695F7F4F820F931F0E940E
:100B80000C0CBE82AD820E94E40097FFE1CFBE0153
:100B90006F5F7F4F8FEA92E00E94B402CE01019610
:100BA0000E94EE028BE191E00E94E3018FEA92E065
:100BB0000E94440281E08093DE018091DE0188235F
:100BC00009F4DEC14AE066E070E080E090E00E9457
:100BD000F50188E191E00E94E30167E271E0CE0156
:100BE00001960E946603CE0101960E948B029093AB
:100BF000DD018093DC01CE0101960E94EE0269E2E4
:100C000071E0CE0101960E946603CE0101960E941A
:100C10008B029093DB018093DA01CE0101960E9452
:100C2000EE028BE291E00E9436028091DC0190910D
:100C3000DD010E94590285E391E00E943602809115
:100C4000DA019091DB010E9459028091DC019091C0
:100C5000DD0197FD06C08091DA019091DB0197FFDD
:100C600005C08EE391E00E9436020AC085E591E05E
:100C70000E94360281E090E09093EE018093ED01B6
:100C800034E0432E512C43E0642E712C52E0852E2B
:100C9000912C8091ED019091EE01883091050CF03E
:100CA00051C1FC013197E730F105B8F7EC5CFF4F1B
:100CB0000C94110A65E671E0CE0101960E9466036C
:100CC000CE0101960E948B025C01CE0101960E942A
:100CD000EE021A141B049CF465E671E0CE01019645
:100CE0000E946603CE0101960E948B029093E00160
:100CF0008093DF01CE0101960E94EE0204C01093A2
:100D0000E0010093DF019092EE018092ED01C1CFEE
:100D100068E671E0CE0101960E946603CE0101965D
:100D20000E948B025C01CE0101960E94EE021A1411
:100D30001B04BCF48BE691E00E94360268E671E089
:100D4000CE0101960E946603CE0101960E948B029D
:100D50009093E2018093E101CE0101960E94EE02A0
:100D600004C01093E2010093E1017092EE016092E1
:100D7000ED018FCF62E771E0CE0101960E9466031C
:100D8000CE0101960E948B025C01CE0101960E9469
:100D9000EE021A141B049CF462E771E0CE01019686
:100DA0000E946603CE0101960E948B029093E4019B
:100DB0008093E301CE0101960E94EE0204C01093DD
:100DC000E4010093E3015092EE014092ED0161CF06
:100DD00065E771E0CE0101960E946603CE0101969F
:100DE0000E948B025C01CE0101960E94EE021A1451
:100DF0001B049CF465E771E0CE0101960E94660336
:100E0000CE0101960E948B029093E6018093E5014A
:100E1000CE0101960E94EE0204C01093E6010093F9
:100E2000E501D092EE01C092ED0133CF68E771E0A9
:100E3000CE0101960E946603CE0101960E948B02AC
:100E40005C01CE0101960E94EE021A141B049CF470
:100E500068E771E0CE0101960E946603CE0101961B
:100E60000E948B029093E8018093E701CE010196E6
:100E70000E94EE0204C01093E8010093E701F09293
:100E8000EE01E092ED0105CF6BE771E0CE01019636
:100E90000E946603CE0101960E948B025C01CE0186
:100EA00001960E94EE021A141B049CF46BE771E099
:100EB000CE0101960E946603CE0101960E948B022C
:100EC0009093EA018093E901CE0101960E94EE021F
:100ED00004C01093EA010093E9013092EE012092E0
:100EE000ED01D7CE6EE771E0CE0101960E94660358
:100EF000CE0101960E948B025C01CE0101960E94F8
:100F0000EE021A141B049CF46EE771E0CE01019608
:100F10000E946603CE0101960E948B029093EC0121
:100F20008093EB01CE0101960E94EE0204C0109363
:100F3000EC010093EB0188E090E09093EE01809348
:100F4000ED01A7CE1092D9011092D8018091D8015D
:100F50009091D901873091059CF4880F991FFC016D
:100F6000E152FE4F808191810E9459028091D80107
:100F70009091D90101969093D9018093D801E6CF41
:100F800081E090E09093EE018093ED018091ED017E
:100F90009091EE018830910509F497C1FC013197D9
:100FA000E730F105B8F7E55CFF4F0C94110A80912A
:100FB000DF019091E001181619060CF04CC081E891
:100FC00091E00E94360260E070E0CE0101960E943E
:100FD000BF03CE0101960E944402CE0101960E94F9
:100FE000EE0260E070E0CE0101960E94BF03CE01E8
:100FF00001960E94A9027093960260939502CE0119
:1010000001960E94EE020E946E004B015C0188EE88
:10101000482E83E0582E612C712C0E946E00DC015A
:10102000CB0188199909AA09BB09883E9340A105FB
:10103000B10598F391E0491A51086108710828EE4A
:10104000820E23E0921EA11CB11C411451046104C4
:10105000710419F704C0109396020093950282E080
:1010600090E090CF8091E1019091E201181619066D
:1010700024F58CE891E00E94360261E070E0CE0138
:1010800001960E94BF03CE0101960E944402CE0148
:1010900001960E94EE0261E070E0CE0101960E948E
:1010A000BF03BE016F5F7F4F83EA92E00E94B402EC
:1010B000CE0101960E94EE0206C067E971E083EA64
:1010C00092E00E94450383E090E05CCF8091E301D1
:1010D0009091E4011816190624F58CE891E00E941D
:1010E000360262E070E0CE0101960E94BF03CE019D
:1010F00001960E944402CE0101960E94EE0262E037
:1011000070E0CE0101960E94BF03BE016F5F7F4F6A
:1011100089EA92E00E94B402CE0101960E94EE029A
:1011200006C067E971E089EA92E00E94450384E025
:1011300090E028CF8091E5019091E60118161906FC
:1011400024F58CE991E00E94360263E070E0CE0164
:1011500001960E94BF03CE0101960E944402CE0177
:1011600001960E94EE0263E070E0CE0101960E94BB
:10117000BF03BE016F5F7F4F8DE992E00E94B40212
:10118000CE0101960E94EE0206C067E971E08DE98A
:1011900092E00E944503D092EE01C092ED01F6CE9E
:1011A0008091E7019091E801181619062CF587EA5D
:1011B00091E00E94360264E070E0CE0101960E9448
:1011C000BF03CE0101960E944402CE0101960E9407
:1011D000EE0264E070E0CE0101960E94BF03CE01F2
:1011E00001960E94A9027093980260939702CE0123
:1011F00001960E94EE0204C010929802109297028B
:10120000F092EE01E092ED01C1CE8091E901909162
:10121000EA01181619062CF582EB91E00E943602BD
:1012200065E070E0CE0101960E94BF03CE010196F9
:101230000E944402CE0101960E94EE0265E070E039
:10124000CE0101960E94BF03CE0101960E94A90221
:1012500070939A0260939902CE0101960E94EE0269
:1012600004C010929A02109299023092EE012092DC
:10127000ED018CCE8091EB019091EC0118161906CE
:10128000ECF48DEB91E00E94360266E070E0CE0156
:1012900001960E94BF03CE0101960E94A90270939D
:1012A0009C0260939B02CE0101960E94EE02809107
:1012B0009B0290919C020E94590204C010929C02D1
:1012C00010929B0288E090E05DCE1092DE0188ECE7
:1012D00091E00E94360280919B0290919C020A97B5
:1012E0000E9459020E94D90127CC6AE171E0CE0127
:1012F00001960E94660347CC1F93FC01992788271B
:10130000BC01E89411911032E9F3193010F01E304D
:10131000C8F31B3251F01D3249F4689406C00E9494
:10132000A309610F711D811D911D119110531A3078
:10133000B0F33EF490958095709561957F4F8F4FF7
:101340009F4F1F910895592F482F372F262F660F33
:10135000771F881F991F660F771F881F991F620FBD
:10136000731F841F951F660F771F881F991F08958D
:101370002F923F924F925F926F927F928F929F92A5
:10138000AF92BF92CF92DF92EF92FF920F931F9393
:10139000CF93DF93CDB7DEB7CA1BDB0B0FB6F89444
:1013A000DEBF0FBECDBF09942A88398848885F8484
:1013B0006E847D848C849B84AA84B984C884DF80F5
:1013C000EE80FD800C811B81AA81B981CE0FD11DD9
:1013D0000FB6F894DEBF0FBECDBFED010895A1E2B8
:1013E0001A2EAA1BBB1BFD010DC0AA1FBB1FEE1F9F
:1013F000FF1FA217B307E407F50720F0A21BB30BEA
:10140000E40BF50B661F771F881F991F1A9469F765
:1014100060957095809590959B01AC01BD01CF01C1
:101420000895EE0FFF1F0590F491E02D09940F939E
:101430001F93CF93DF938230910510F482E090E008
:10144000E091B702F091B80220E030E0A0E0B0E017
:10145000309719F140815181028113814817590752
:10146000C8F08417950769F4109731F012960C9321
:10147000129713961C9327C00093B7021093B802DB
:1014800022C02115310519F04217530718F49A01AB
:10149000BD01EF01DF01F801DBCF21153105F9F0C6
:1014A000281B390B2430310580F48A819B8161151A
:1014B000710521F0FB019383828304C09093B802ED
:1014C0008093B702FE01329644C0FE01E20FF31F83
:1014D0008193919322503109398328833AC0209116
:1014E000B5023091B602232B41F4209102013091D4
:1014F00003013093B6022093B50220910001309190
:1015000001012115310541F42DB73EB74091040189
:1015100050910501241B350BE091B502F091B60204
:10152000E217F307A0F42E1B3F0B2817390778F0BA
:10153000AC014E5F5F4F2417350748F04E0F5F1F19
:101540005093B6024093B5028193919302C0E0E0BC
:10155000F0E0CF01DF91CF911F910F910895CF93CC
:10156000DF93009709F481C0FC0132971382128245
:10157000A091B702B091B802109781F42081318117
:10158000820F931F2091B5023091B60228173907B8
:1015900051F5F093B602E093B50267C0ED0120E08B
:1015A00030E0CE17DF0740F44A815B819E01411590
:1015B0005105F1F0EA01F5CFD383C2834081518117
:1015C000840F951FC817D90759F488819981840F12
:1015D000951F0296918380838A819B819383828366
:1015E0002115310529F4F093B802E093B7023DC00C
:1015F000E901FB83EA8349915991C40FD51FEC1788
:10160000FD0761F480819181840F951F0296E901A5
:1016100099838883828193819B838A83E0E0F0E0D1
:1016200012968D919C911397009719F0FD01DC01A2
:10163000F7CF8D919C9111979D012E5F3F4F820FA7
:10164000931F2091B5023091B6022817390769F42B
:10165000309729F41092B8021092B70202C0138298
:101660001282B093B602A093B502DF91CF91089594
:10167000A0E0B0E0EEE3FBE00C94BC09EC010097C5
:1016800021F4CB010E94170AB4C0FC01E60FF71F3A
:101690009C0122503109E217F30708F4A8C0D901D0
:1016A0000D911C91119706171707B0F00530110521
:1016B00008F49BC0C80104978617970708F495C0E3
:1016C00002501109061B170B019311936D937C9324
:1016D000CF010E94AF0A89C05B01A01AB10A4C0178
:1016E000800E911EA091B702B091B802612C712CAE
:1016F000E12CF12C109709F446C08D919C91119723
:10170000A815B905B1F56C0142E0C40ED11CCA148C
:10171000DB0478F14C018A189B08640142E0C40E96
:10172000D11C1296BC9012971396AC91B5E0CB16D3
:10173000D10440F0B282A38391828082D9016D935B
:101740007C9309C00E5F1F4F800F911FF901918399
:101750008083EB2DFA2FE114F10431F0D7011396B9
:10176000FC93EE93129741C0F093B802E093B70256
:101770003CC06816790608F43C017D0112960D9074
:10178000BC91A02DB7CF8091B5029091B60288167A
:101790009906E1F466167706C8F4809100019091ED
:1017A0000101009741F48DB79EB74091040150911B
:1017B0000501841B950BE817F907C8F4F093B602EE
:1017C000E093B502F901718360830FC0CB010E94E1
:1017D000170A7C01009759F0A801BE010E94030C72
:1017E000CE010E94AF0AC70104C0CE0102C080E052
:1017F00090E0CDB7DEB7EEE00C94D80981E090E040
:10180000F8940C942D0CFB01DC0102C001900D92A8
:1018100041505040D8F70895FB01DC0101900D9232
:101820000020E1F70895FB0151915523A9F0BF0174
:10183000DC014D9145174111E1F759F4CD010190BB
:10184000002049F04D9140154111C9F3FB014111B0
:10185000EFCF81E090E00197089510E0C3E4D0E07D
:1018600004C0FE010E94110A2196C434D107C9F7B1
:04187000F894FFCF1A
:101874000000B9022000000000006A019400C100C9
:10188400B7013201D00024010D0A004575207265AC
:10189400636562693A2000240023005072696D6513
:1018A40069726F2000536567756E646F2000466F20
:1018B400726D61746F20537472696E672065727201
:1018C40061646F2E00537472696E6720436F727285
:1018D4006574612000533D004D33004D332059455C
:1018E40053004D3400463D00583D00593D005A3DDB
:1018F4000056616C6F7220646F20530056616C6FE8
:101904007220646F204D004E756C6C0056616C6FD4
:101914007220646F20460056616C6F7220646F20E1
:10192400580056616C6F7220646F20590056616CC8
:101934006F7220646F205A00546573746520646567
:081944002073747275637400D6
:00000001FF
