:100000000C9462000C948A000C948A000C948A0070
:100010000C948A000C948A000C948A000C948A0038
:100020000C948A000C948A000C948A000C948A0028
:100030000C948A000C948A000C948A000C948A0018
:100040000C949B050C948A000C948A000C948A00F2
:100050000C948A000C948A000C948A000C948A00F8
:100060000C946D040C948A0000000000230026000C
:10007000290000000000240027002A0000000000E2
:10008000250028002B0004040404040404040202D4
:100090000202020203030303030301020408102007
:1000A0004080010204081020010204081020000012
:1000B0000008000201000003040700000000000027
:1000C0000000E50511241FBECFEFD8E0DEBFCDBF95
:1000D00011E0A0E0B1E0E0E3FEE002C005900D9287
:1000E000A632B107D9F722E0A6E2B1E001C01D9225
:1000F000A031B207E1F710E0C2E6D0E004C02197DA
:10010000FE010E940B07C136D107C9F70E941C06E9
:100110000C9416070C940000DC01ED91FC91068410
:10012000F785E02D40E009943091EA01313208F082
:100130004BC08091C6018111FCCF9091E90122E072
:100140002093C60121E02093C5012FEF2093C40125
:100150001092C3013093C201E9ECF1E0A2EAB1E0F0
:1001600020E0321721F041914D932F5FFACF10928A
:10017000A1012091A101990F922B9093A10190913F
:10018000A001913061F41092A0019091A10190938F
:10019000BB009091BC0093FDF8CF95EC01C095EEAB
:1001A0009093BC009091C6019230E1F39091C4010C
:1001B0009F3F79F08091C401803241F08091C40169
:1001C000803331F084E005C081E003C082E001C0EB
:1001D00083E01092C8011092EA011092C7010895BD
:1001E00085ED8093BC008091BC0084FDFCCF109213
:1001F000C601089540917B01262F30E0240F311D68
:1002000021323105DCF42091C6012430C9F4FC010F
:1002100080E090E0861758F430917B012191DC0159
:10022000A75ABE4FA30FB11D2C930196F3CF809117
:100230007B01680F60937B0180E0089581E0089561
:1002400082E00895089508950895E09158018091FD
:100250005701E81730F4F0E0E95CFE4F808190E050
:1002600008958FEF9FEF0895909158018091570165
:10027000981750F4E92FF0E0E95CFE4F208130E060
:100280009F5F9093580102C02FEF3FEFC90108957F
:100290008091570190E020915801821B91090895A7
:1002A000CF92DF92EF92FF920F931F93CF93DF9342
:1002B0007C01CB018A012091C701222389F0EB0147
:1002C0006B01C40ED51ECC15DD0569F06991D7010F
:1002D000ED91FC910190F081E02DC7010995F3CFDC
:1002E000642F0E94FA00C801DF91CF911F910F91F6
:1002F000FF90EF90DF90CF900895CF93DF931F9200
:10030000CDB7DEB769832091C7012223D1F02091B8
:10031000EA01203240F021E030E0FC013383228307
:1003200080E090E015C08091C801E82FF0E0E7532D
:10033000FE4F998190838F5F8093C8018093EA017B
:1003400005C061E0CE0101960E94FA0081E090E0D4
:100350000F90DF91CF910895FC0123812223B1F00A
:100360008181682B6083828191E09093C7018093A3
:10037000E9011092C8011092EA018BEE91E00E940F
:100380007D010E949400282F30E002C020E030E080
:1003900081E090E0232B11F080E090E00895EF924F
:1003A000FF920F931F93CF938C01FC0184E0C0E078
:1003B00060FF02C09589C92B6695815031968111E5
:1003C000F7CF413011F4F8014489F8018585C82B35
:1003D000C42B7801FEE0EF0EF11CF80162896C2B52
:1003E000C7010E94AC01F801628960956C23C701C6
:1003F000CF911F910F91FF90EF900C94AC0183303F
:1004000081F028F4813099F08230A1F0089587308E
:10041000A9F08830B9F08430D1F4809180008F7DCC
:1004200003C0809180008F7780938000089584B509
:100430008F7702C084B58F7D84BD08958091B00010
:100440008F7703C08091B0008F7D8093B0000895B6
:100450001F93CF93DF93282F30E0F901E255FF4F30
:100460008491F901E656FF4FD491F901EA57FF4F05
:10047000C491CC23C1F0162F81110E94FF01EC2FF3
:10048000F0E0EE0FFF1FE458FF4FA591B4919FB726
:10049000F894111104C08C91D095D82302C0EC912E
:1004A000DE2BDC939FBFDF91CF911F910895CF93F7
:1004B000DF9390E0FC01E656FF4F2491FC01EA57E0
:1004C000FF4F8491882361F190E0880F991FFC0110
:1004D000EE58FF4FC591D491FC01E458FF4FA59110
:1004E000B491611109C09FB7F89488812095822347
:1004F0008883EC912E230BC0623061F49FB7F8948F
:100500008881322F309583238883EC912E2B2C9376
:100510009FBF06C08FB7F894E8812E2B28838FBF2A
:10052000DF91CF9108953FB7F89480913301909176
:100530003401A0913501B091360126B5A89B05C0C4
:100540002F3F19F00196A11DB11D3FBFBA2FA92F52
:10055000982F8827820F911DA11DB11DBC01CD01CF
:1005600042E0660F771F881F991F4A95D1F70895BB
:10057000CF92DF92EF92FF920F931F93CF93DF936F
:100580006C017A018B01C0E0D0E0CE15DF0581F06F
:10059000D8016D918D01D601ED91FC910190F08112
:1005A000E02DC6010995892B11F02196EECF7E0131
:1005B000C701DF91CF911F910F91FF90EF90DF90D6
:1005C000CF9008950F931F93CF93DF93062F0F7053
:1005D000423019F440E0602F0EC0142FEC0170E09F
:1005E00084E0759567958A95E1F7CE010E94CF0169
:1005F000412F602FCE01DF91CF911F910F910C946D
:10060000CF01FC0184858823A9F02185328521153D
:10061000310519F4611106C007C02130310521F4FC
:10062000611102C0858701C015866585CF010E96D0
:100630000C94AC01089521E001C0220F6A95EAF7FD
:10064000DC011C962C931C971A965C934E93199779
:10065000ED91FC910484F585E02D60E00994DC01C6
:10066000ED91FC910684F785E02D41E0099581E04C
:1006700090E008958F929F92AF92BF92CF92DF92B7
:10068000EF92FF920F931F93CF93DF93EC014230D1
:1006900018F08C8188608C834F836887222329F02F
:1006A000413019F48C8184608C830E9493026B0129
:1006B0007C0184E6882E912CA12CB12C0E949302FF
:1006C000DC01CB018C199D09AE09BF09883E93401E
:1006D000A105B10598F321E0821A9108A108B1089B
:1006E00088EEC80E83E0D81EE11CF11C8114910431
:1006F000A104B10419F76C8164FD31C0E881F9816E
:100700000684F785E02D42E063E0CE0109958BE495
:1007100096E40197F1F7E881F9810684F785E02DE9
:1007200042E063E0CE01099503E512E0C8010197BC
:10073000F1F7E881F9810684F785E02D42E063E076
:10074000CE010995C8010197F1F7E881F981068486
:10075000F785E02D42E062E0CE01099517C06062A6
:10076000CE010E948C008BE496E40197F1F76C8136
:100770006062CE010E948C0003E512E0C80101977F
:10078000F1F76C816062CE010E948C00C801019774
:10079000F1F76C816062CE010E948C008BEE90E0DC
:1007A0000197F1F784E08D836CE0CE010E948C000C
:1007B00061E0CE010E948C008BE39FE10197F1F78D
:1007C00082E08E8366E0CE010E948C00E881F98190
:1007D0000484F585E02D6FEFCE01DF91CF911F915D
:1007E0000F91FF90EF90DF90CF90BF90AF909F90D0
:1007F0008F900994EF92FF920F931F93CF93DF9303
:10080000EC01062FF42EE22E8B85888B1092580176
:10081000109257011092C8011092EA011092C6017D
:1008200011E01093C5011092A00161E082E10E94E5
:10083000280261E083E10E9428028091B9008E7F46
:100840008093B9008091B9008D7F8093B90088E4CE
:100850008093B80085E48093BC0082E291E090939D
:100860007A018093790183E291E090937E018093F5
:100870007D0188891093C7018093E9011092C80116
:100880001092EA010E94940091E0811190E0998B0E
:10089000811105C08BEE91E00E9434018E87898919
:1008A000882339F01F861C8260E0CE010E960E94DC
:1008B000AC012E2D4F2D602FCE01DF91CF911F91D6
:1008C0000F91FF90EF900C943A03089508950895C6
:1008D00080E090E008950E9411071F920F920FB6DA
:1008E0000F9211242F933F934F935F936F937F93B6
:1008F0008F939F93AF93BF93EF93FF938091B90032
:10090000887F803609F49CC068F5883209F45BC0A2
:1009100090F4803109F454C038F4882309F4F6C007
:10092000883009F44DC0F6C0883109F44CC08032DB
:1009300009F45DC0EFC0803409F468C048F4803326
:1009400009F455C0883309F0E5C08093C401D8C0CC
:10095000803509F44FC0883509F45DC0883409F04A
:10096000D9C0D6C0883909F4C7C0A8F4883709F4BB
:1009700067C038F4883609F463C0803709F460C072
:10098000C9C0883809F4B8C0803909F45FC080381C
:1009900009F0C0C05BC0803B09F486C038F4803ADF
:1009A00009F466C0883A09F47FC0B4C0803C09F4F9
:1009B000A7C0883C09F4A4C0883B09F48AC0AAC037
:1009C0008091A10110C09091C3018091C20198173C
:1009D00070F5E091C30181E08E0F8093C301F0E0D8
:1009E000EE55FE4F80818093BB0085EC86C08093DE
:1009F000C4018EC0E091C30181E08E0F8093C301DA
:100A00008091BB00F0E0EE55FE4F80839091C301D2
:100A10008091C2016EC0E091C30181E08E0F80938E
:100A2000C3018091BB00F0E0EE55FE4F80838091C2
:100A3000C50181116DC081E08093A00184EA61C08D
:100A400083E08093C60110929F01CFCF80919F01D8
:100A5000803208F051C0E0919F0181E08E0F8093B9
:100A60009F018091BB00F0E0E158FE4F8083BDCF35
:100A700085EC8093BC001092C60180919F0180326A
:100A800030F4E0919F01F0E0E158FE4F1082609158
:100A90009F0170E0E0917D01F0917E018FE791E090
:100AA000099510929F0136C084E08093C601109290
:100AB0007C0110927B01E0917901F0917A01099516
:100AC00080917B01811105C081E080937B011092B0
:100AD0005901E0917C0181E08E0F80937C01F0E070
:100AE000E75AFE4F80818093BB0090917C018091FA
:100AF0007B01981708F479CF85E88093BC000AC081
:100B000085EC8093BC001092C60104C01092C40111
:100B10000E94F000FF91EF91BF91AF919F918F9153
:100B20007F916F915F914F913F912F910F900FBEE9
:100B30000F901F9018951F920F920FB60F921124CD
:100B40002F933F938F939F93AF93BF9380912F01E8
:100B500090913001A0913101B091320130912E017C
:100B600023E0230F2D3720F40196A11DB11D05C0F0
:100B700026E8230F0296A11DB11D20932E0180931C
:100B80002F0190933001A0933101B09332018091F5
:100B9000330190913401A0913501B0913601019655
:100BA000A11DB11D8093330190933401A0933501B1
:100BB000B0933601BF91AF919F918F913F912F914B
:100BC0000F900FBE0F901F901895EBEEF1E013827F
:100BD000128288EE93E0A0E0B0E084839583A68340
:100BE000B78384E091E091838083E7EFF1E01382A3
:100BF000128286E191E091838083108A8FEF87874C
:100C00001686118A8FE383871486158612861186CD
:100C100084E0828B82E0838B81E0848B80E1858B12
:100C200080E2868B80E4878B80E8808F40E050E014
:100C300063E0CF010C941B03789484B5826084BD7B
:100C400084B5816084BD85B5826085BD85B58160D0
:100C500085BD80916E00816080936E00109281004E
:100C60008091810082608093810080918100816009
:100C700080938100809180008160809380008091CA
:100C8000B10084608093B1008091B0008160809356
:100C9000B00080917A00846080937A0080917A001D
:100CA000826080937A0080917A00816080937A00DC
:100CB00080917A00806880937A001092C10060E091
:100CC00089E00E94570260E088E00E94570260E0DD
:100CD00087E00E94570260E086E00E94570261E0D0
:100CE0008DE00E94570261E08CE00E94570261E0B3
:100CF0008AE00E94570261E08BE00E9457029BEB62
:100D0000492E90E0592EC7EAD0E023E9222E20E0B8
:100D1000322E30E0632E30E0732E2FB7F89480919E
:100D20002F0190913001A0913101B09132012FBF7C
:100D30004C015D019C01A50160E070E080E090E065
:100D4000A0902601B0902701C0902801D0902901E1
:100D5000E0902A01F0902B0100912C0110912D01BF
:100D60000E940207233F314041055105610571058D
:100D70008105910509F008F43EC08FB7F894009101
:100D80002F011091300120913101309132018FBF3C
:100D90000093260110932701209328013093290105
:100DA00010922A0110922B0110922C0110922D0109
:100DB000F2018491FE010491F10114911123A1F03B
:100DC00081110E94FF01E12FF0E0EE0FFF1FE859B3
:100DD000FF4FA591B4918C91802321E090E009F41C
:100DE00020E0622F792F02C060E070E0F1E06F2711
:100DF0008DE00E9428026114710409F48ECF0E94D4
:100E000000008BCF2A193B094C095D096E097F0947
:100E1000800B910B0895EE0FFF1F0590F491E02DCC
:100E2000099481E090E0F8940C941607F894FFCFB1
:100E3000000000007D0150016804240148013401D4
:100E40002501000000002F03B80268046704FA03BC
:060E50001B030103E20296
:00000001FF
